{
  "contractName": "AdminRole",
  "abi": [
    {
      "inputs": [],
      "stateMutability": "nonpayable",
      "type": "constructor"
    },
    {
      "anonymous": false,
      "inputs": [
        {
          "indexed": true,
          "internalType": "bytes32",
          "name": "role",
          "type": "bytes32"
        },
        {
          "indexed": true,
          "internalType": "bytes32",
          "name": "previousAdminRole",
          "type": "bytes32"
        },
        {
          "indexed": true,
          "internalType": "bytes32",
          "name": "newAdminRole",
          "type": "bytes32"
        }
      ],
      "name": "RoleAdminChanged",
      "type": "event"
    },
    {
      "anonymous": false,
      "inputs": [
        {
          "indexed": true,
          "internalType": "bytes32",
          "name": "role",
          "type": "bytes32"
        },
        {
          "indexed": true,
          "internalType": "address",
          "name": "account",
          "type": "address"
        },
        {
          "indexed": true,
          "internalType": "address",
          "name": "sender",
          "type": "address"
        }
      ],
      "name": "RoleGranted",
      "type": "event"
    },
    {
      "anonymous": false,
      "inputs": [
        {
          "indexed": true,
          "internalType": "bytes32",
          "name": "role",
          "type": "bytes32"
        },
        {
          "indexed": true,
          "internalType": "address",
          "name": "account",
          "type": "address"
        },
        {
          "indexed": true,
          "internalType": "address",
          "name": "sender",
          "type": "address"
        }
      ],
      "name": "RoleRevoked",
      "type": "event"
    },
    {
      "inputs": [],
      "name": "DEFAULT_ADMIN_ROLE",
      "outputs": [
        {
          "internalType": "bytes32",
          "name": "",
          "type": "bytes32"
        }
      ],
      "stateMutability": "view",
      "type": "function"
    },
    {
      "inputs": [
        {
          "internalType": "bytes32",
          "name": "role",
          "type": "bytes32"
        }
      ],
      "name": "getRoleAdmin",
      "outputs": [
        {
          "internalType": "bytes32",
          "name": "",
          "type": "bytes32"
        }
      ],
      "stateMutability": "view",
      "type": "function"
    },
    {
      "inputs": [
        {
          "internalType": "bytes32",
          "name": "role",
          "type": "bytes32"
        },
        {
          "internalType": "address",
          "name": "account",
          "type": "address"
        }
      ],
      "name": "grantRole",
      "outputs": [],
      "stateMutability": "nonpayable",
      "type": "function"
    },
    {
      "inputs": [
        {
          "internalType": "bytes32",
          "name": "role",
          "type": "bytes32"
        },
        {
          "internalType": "address",
          "name": "account",
          "type": "address"
        }
      ],
      "name": "hasRole",
      "outputs": [
        {
          "internalType": "bool",
          "name": "",
          "type": "bool"
        }
      ],
      "stateMutability": "view",
      "type": "function"
    },
    {
      "inputs": [
        {
          "internalType": "bytes32",
          "name": "role",
          "type": "bytes32"
        },
        {
          "internalType": "address",
          "name": "account",
          "type": "address"
        }
      ],
      "name": "renounceRole",
      "outputs": [],
      "stateMutability": "nonpayable",
      "type": "function"
    },
    {
      "inputs": [
        {
          "internalType": "bytes32",
          "name": "role",
          "type": "bytes32"
        },
        {
          "internalType": "address",
          "name": "account",
          "type": "address"
        }
      ],
      "name": "revokeRole",
      "outputs": [],
      "stateMutability": "nonpayable",
      "type": "function"
    },
    {
      "inputs": [
        {
          "internalType": "bytes4",
          "name": "interfaceId",
          "type": "bytes4"
        }
      ],
      "name": "supportsInterface",
      "outputs": [
        {
          "internalType": "bool",
          "name": "",
          "type": "bool"
        }
      ],
      "stateMutability": "view",
      "type": "function"
    }
  ],
  "bytecode": "0x608060405234801561001057600080fd5b5061001c600033610021565b6100cd565b61002b828261002f565b5050565b6000828152602081815260408083206001600160a01b038516845290915290205460ff1661002b576000828152602081815260408083206001600160a01b03851684529091529020805460ff191660011790556100893390565b6001600160a01b0316816001600160a01b0316837f2f8788117e7eff1d82e926ec794901d17c78024a50270940304540a733656f0d60405160405180910390a45050565b61074e806100dc6000396000f3fe608060405234801561001057600080fd5b506004361061006d5760003560e01c806301ffc9a714610072578063248a9ca31461009a5780632f2ff15d146100bb57806336568abe146100d057806391d14854146100e3578063a217fddf146100f6578063d547741f146100fe575b600080fd5b61008561008036600461058c565b610111565b60405190151581526020015b60405180910390f35b6100ad6100a8366004610537565b610148565b604051908152602001610091565b6100ce6100c9366004610550565b61015d565b005b6100ce6100de366004610550565b61017f565b6100856100f1366004610550565b610202565b6100ad600081565b6100ce61010c366004610550565b61022b565b60006001600160e01b03198216637965db0b60e01b148061014257506301ffc9a760e01b6001600160e01b03198316145b92915050565b60009081526020819052604090206001015490565b61016682610148565b6101708133610248565b61017a83836102ac565b505050565b6001600160a01b03811633146101f45760405162461bcd60e51b815260206004820152602f60248201527f416363657373436f6e74726f6c3a2063616e206f6e6c792072656e6f756e636560448201526e103937b632b9903337b91039b2b63360891b60648201526084015b60405180910390fd5b6101fe8282610330565b5050565b6000918252602082815260408084206001600160a01b0393909316845291905290205460ff1690565b61023482610148565b61023e8133610248565b61017a8383610330565b6102528282610202565b6101fe5761026a816001600160a01b03166014610395565b610275836020610395565b6040516020016102869291906105b6565b60408051601f198184030181529082905262461bcd60e51b82526101eb91600401610625565b6102b68282610202565b6101fe576000828152602081815260408083206001600160a01b03851684529091529020805460ff191660011790556102ec3390565b6001600160a01b0316816001600160a01b0316837f2f8788117e7eff1d82e926ec794901d17c78024a50270940304540a733656f0d60405160405180910390a45050565b61033a8282610202565b156101fe576000828152602081815260408083206001600160a01b0385168085529252808320805460ff1916905551339285917ff6391f5c32d9c69d2a47ea670b442974b53935d1edc7fd64eb21e047a839171b9190a45050565b606060006103a4836002610670565b6103af906002610658565b6001600160401b038111156103c6576103c6610702565b6040519080825280601f01601f1916602001820160405280156103f0576020820181803683370190505b509050600360fc1b8160008151811061040b5761040b6106ec565b60200101906001600160f81b031916908160001a905350600f60fb1b8160018151811061043a5761043a6106ec565b60200101906001600160f81b031916908160001a905350600061045e846002610670565b610469906001610658565b90505b60018111156104e1576f181899199a1a9b1b9c1cb0b131b232b360811b85600f166010811061049d5761049d6106ec565b1a60f81b8282815181106104b3576104b36106ec565b60200101906001600160f81b031916908160001a90535060049490941c936104da816106bf565b905061046c565b5083156105305760405162461bcd60e51b815260206004820181905260248201527f537472696e67733a20686578206c656e67746820696e73756666696369656e7460448201526064016101eb565b9392505050565b60006020828403121561054957600080fd5b5035919050565b6000806040838503121561056357600080fd5b8235915060208301356001600160a01b038116811461058157600080fd5b809150509250929050565b60006020828403121561059e57600080fd5b81356001600160e01b03198116811461053057600080fd5b76020b1b1b2b9b9a1b7b73a3937b61d1030b1b1b7bab73a1604d1b8152600083516105e881601785016020880161068f565b7001034b99036b4b9b9b4b733903937b6329607d1b601791840191820152835161061981602884016020880161068f565b01602801949350505050565b602081526000825180602084015261064481604085016020870161068f565b601f01601f19169190910160400192915050565b6000821982111561066b5761066b6106d6565b500190565b600081600019048311821515161561068a5761068a6106d6565b500290565b60005b838110156106aa578181015183820152602001610692565b838111156106b9576000848401525b50505050565b6000816106ce576106ce6106d6565b506000190190565b634e487b7160e01b600052601160045260246000fd5b634e487b7160e01b600052603260045260246000fd5b634e487b7160e01b600052604160045260246000fdfea2646970667358221220d9d27ead5dd4962d0709e0909625f7f2dcb893dcddc5e184e8181b197e949be064736f6c63430008070033",
  "immutableReferences": {},
  "source": "pragma solidity ^0.8.4;\r\npragma experimental ABIEncoderV2;\r\n// SPDX-License-Identifier: UNLICENSED\r\n\r\nimport \"@openzeppelin/contracts/access/AccessControl.sol\";\r\n\r\ncontract AdminRole is AccessControl {\r\n\r\n    modifier onlyAdmin() {\r\n        require(isAdmin(_msgSender()), \"Ownable: caller is not the admin\");\r\n        _;\r\n    }\r\n\r\n    constructor() {\r\n        _setupRole(DEFAULT_ADMIN_ROLE, _msgSender());\r\n    }\r\n\r\n    function isAdmin(address _account) internal virtual view returns(bool) {\r\n        return hasRole(DEFAULT_ADMIN_ROLE , _account);\r\n    }\r\n}",
  "sourcePath": "E:\\BlockChain_Workspace\\MV\\ikonic-contracts\\contracts\\roles\\AdminRole.sol",
  "compiler": {
    "name": "solc",
    "version": "0.8.7+commit.e28d00a7.Emscripten.clang"
  },
  "schemaVersion": "3.4.2",
  "updatedAt": "2021-09-08T12:26:57.524Z",
  "devdoc": {
    "kind": "dev",
    "methods": {
      "getRoleAdmin(bytes32)": {
        "details": "Returns the admin role that controls `role`. See {grantRole} and {revokeRole}. To change a role's admin, use {_setRoleAdmin}."
      },
      "grantRole(bytes32,address)": {
        "details": "Grants `role` to `account`. If `account` had not been already granted `role`, emits a {RoleGranted} event. Requirements: - the caller must have ``role``'s admin role."
      },
      "hasRole(bytes32,address)": {
        "details": "Returns `true` if `account` has been granted `role`."
      },
      "renounceRole(bytes32,address)": {
        "details": "Revokes `role` from the calling account. Roles are often managed via {grantRole} and {revokeRole}: this function's purpose is to provide a mechanism for accounts to lose their privileges if they are compromised (such as when a trusted device is misplaced). If the calling account had been granted `role`, emits a {RoleRevoked} event. Requirements: - the caller must be `account`."
      },
      "revokeRole(bytes32,address)": {
        "details": "Revokes `role` from `account`. If `account` had been granted `role`, emits a {RoleRevoked} event. Requirements: - the caller must have ``role``'s admin role."
      },
      "supportsInterface(bytes4)": {
        "details": "See {IERC165-supportsInterface}."
      }
    },
    "version": 1
  },
  "userdoc": {
    "kind": "user",
    "methods": {},
    "version": 1
  }
}