{
  "contractName": "HasContractURI",
  "abi": [
    {
      "inputs": [
        {
          "internalType": "string",
          "name": "_contractURI",
          "type": "string"
        }
      ],
      "stateMutability": "nonpayable",
      "type": "constructor"
    },
    {
      "inputs": [],
      "name": "contractURI",
      "outputs": [
        {
          "internalType": "string",
          "name": "",
          "type": "string"
        }
      ],
      "stateMutability": "view",
      "type": "function"
    },
    {
      "inputs": [
        {
          "internalType": "bytes4",
          "name": "interfaceId",
          "type": "bytes4"
        }
      ],
      "name": "supportsInterface",
      "outputs": [
        {
          "internalType": "bool",
          "name": "",
          "type": "bool"
        }
      ],
      "stateMutability": "view",
      "type": "function"
    }
  ],
  "bytecode": "0x608060405234801561001057600080fd5b506040516104e13803806104e183398101604081905261002f91610175565b80516100429060019060208401906100dc565b5061005363e8a3d48560e01b610059565b50610295565b6001600160e01b031980821614156100b75760405162461bcd60e51b815260206004820152601c60248201527f4552433136353a20696e76616c696420696e7465726661636520696400000000604482015260640160405180910390fd5b6001600160e01b0319166000908152602081905260409020805460ff19166001179055565b8280546100e890610244565b90600052602060002090601f01602090048101928261010a5760008555610150565b82601f1061012357805160ff1916838001178555610150565b82800160010185558215610150579182015b82811115610150578251825591602001919060010190610135565b5061015c929150610160565b5090565b5b8082111561015c5760008155600101610161565b6000602080838503121561018857600080fd5b82516001600160401b038082111561019f57600080fd5b818501915085601f8301126101b357600080fd5b8151818111156101c5576101c561027f565b604051601f8201601f19908116603f011681019083821181831017156101ed576101ed61027f565b81604052828152888684870101111561020557600080fd5b600093505b82841015610227578484018601518185018701529285019261020a565b828411156102385760008684830101525b98975050505050505050565b600181811c9082168061025857607f821691505b6020821081141561027957634e487b7160e01b600052602260045260246000fd5b50919050565b634e487b7160e01b600052604160045260246000fd5b61023d806102a46000396000f3fe608060405234801561001057600080fd5b50600436106100365760003560e01c806301ffc9a71461003b578063e8a3d48514610063575b600080fd5b61004e610049366004610146565b610078565b60405190151581526020015b60405180910390f35b61006b6100b8565b60405161005a9190610177565b60006301ffc9a760e01b6001600160e01b0319831614806100b257506001600160e01b0319821660009081526020819052604090205460ff165b92915050565b600180546100c5906101cc565b80601f01602080910402602001604051908101604052809291908181526020018280546100f1906101cc565b801561013e5780601f106101135761010080835404028352916020019161013e565b820191906000526020600020905b81548152906001019060200180831161012157829003601f168201915b505050505081565b60006020828403121561015857600080fd5b81356001600160e01b03198116811461017057600080fd5b9392505050565b600060208083528351808285015260005b818110156101a457858101830151858201604001528201610188565b818111156101b6576000604083870101525b50601f01601f1916929092016040019392505050565b600181811c908216806101e057607f821691505b6020821081141561020157634e487b7160e01b600052602260045260246000fd5b5091905056fea264697066735822122032062e3febee071b19d326d58a7b3f4beb7483cbbce337d51368b12a97b4d42764736f6c63430008070033",
  "immutableReferences": {},
  "source": "pragma solidity ^0.8.4;\r\n// SPDX-License-Identifier: UNLICENSED\r\n\r\nimport \"@openzeppelin/contracts/utils/introspection/ERC165Storage.sol\";\r\n\r\ncontract HasContractURI is ERC165Storage {\r\n\r\n    string public contractURI;\r\n\r\n    /*\r\n     * bytes4(keccak256('contractURI()')) == 0xe8a3d485\r\n     */\r\n    bytes4 private constant _INTERFACE_ID_CONTRACT_URI = 0xe8a3d485;\r\n\r\n    constructor(string memory _contractURI) {\r\n        contractURI = _contractURI;\r\n        _registerInterface(_INTERFACE_ID_CONTRACT_URI);\r\n    }\r\n\r\n    /**\r\n     * @dev Internal function to set the contract URI\r\n     * @param _contractURI string URI prefix to assign\r\n     */\r\n    function _setContractURI(string memory _contractURI) internal {\r\n        contractURI = _contractURI;\r\n    }\r\n}",
  "sourcePath": "E:\\BlockChain_Workspace\\MV\\ikonic-contracts\\contracts\\tokens\\HasContractURI.sol",
  "compiler": {
    "name": "solc",
    "version": "0.8.7+commit.e28d00a7.Emscripten.clang"
  },
  "schemaVersion": "3.4.2",
  "updatedAt": "2021-09-08T12:26:57.615Z",
  "devdoc": {
    "kind": "dev",
    "methods": {
      "supportsInterface(bytes4)": {
        "details": "See {IERC165-supportsInterface}."
      }
    },
    "version": 1
  },
  "userdoc": {
    "kind": "user",
    "methods": {},
    "version": 1
  }
}