{
  "contractName": "IkonicERC721Token",
  "abi": [
    {
      "inputs": [
        {
          "internalType": "string",
          "name": "_name",
          "type": "string"
        },
        {
          "internalType": "string",
          "name": "_symbol",
          "type": "string"
        },
        {
          "internalType": "string",
          "name": "_contractURI",
          "type": "string"
        },
        {
          "internalType": "string",
          "name": "_baseURI",
          "type": "string"
        }
      ],
      "stateMutability": "nonpayable",
      "type": "constructor"
    },
    {
      "anonymous": false,
      "inputs": [
        {
          "indexed": true,
          "internalType": "address",
          "name": "owner",
          "type": "address"
        },
        {
          "indexed": true,
          "internalType": "address",
          "name": "approved",
          "type": "address"
        },
        {
          "indexed": true,
          "internalType": "uint256",
          "name": "tokenId",
          "type": "uint256"
        }
      ],
      "name": "Approval",
      "type": "event"
    },
    {
      "anonymous": false,
      "inputs": [
        {
          "indexed": true,
          "internalType": "address",
          "name": "owner",
          "type": "address"
        },
        {
          "indexed": true,
          "internalType": "address",
          "name": "operator",
          "type": "address"
        },
        {
          "indexed": false,
          "internalType": "bool",
          "name": "approved",
          "type": "bool"
        }
      ],
      "name": "ApprovalForAll",
      "type": "event"
    },
    {
      "anonymous": false,
      "inputs": [
        {
          "indexed": true,
          "internalType": "address",
          "name": "previousOwner",
          "type": "address"
        },
        {
          "indexed": true,
          "internalType": "address",
          "name": "newOwner",
          "type": "address"
        }
      ],
      "name": "OwnershipTransferred",
      "type": "event"
    },
    {
      "anonymous": false,
      "inputs": [
        {
          "indexed": false,
          "internalType": "uint256",
          "name": "tokenId",
          "type": "uint256"
        },
        {
          "indexed": false,
          "internalType": "address[]",
          "name": "recipients",
          "type": "address[]"
        },
        {
          "indexed": false,
          "internalType": "uint256[]",
          "name": "bps",
          "type": "uint256[]"
        }
      ],
      "name": "SecondarySaleFees",
      "type": "event"
    },
    {
      "anonymous": false,
      "inputs": [
        {
          "indexed": true,
          "internalType": "address",
          "name": "from",
          "type": "address"
        },
        {
          "indexed": true,
          "internalType": "address",
          "name": "to",
          "type": "address"
        },
        {
          "indexed": true,
          "internalType": "uint256",
          "name": "tokenId",
          "type": "uint256"
        }
      ],
      "name": "Transfer",
      "type": "event"
    },
    {
      "inputs": [
        {
          "internalType": "address",
          "name": "to",
          "type": "address"
        },
        {
          "internalType": "uint256",
          "name": "tokenId",
          "type": "uint256"
        }
      ],
      "name": "approve",
      "outputs": [],
      "stateMutability": "nonpayable",
      "type": "function"
    },
    {
      "inputs": [
        {
          "internalType": "address",
          "name": "owner",
          "type": "address"
        }
      ],
      "name": "balanceOf",
      "outputs": [
        {
          "internalType": "uint256",
          "name": "",
          "type": "uint256"
        }
      ],
      "stateMutability": "view",
      "type": "function"
    },
    {
      "inputs": [
        {
          "internalType": "uint256",
          "name": "tokenId",
          "type": "uint256"
        }
      ],
      "name": "burn",
      "outputs": [],
      "stateMutability": "nonpayable",
      "type": "function"
    },
    {
      "inputs": [
        {
          "internalType": "uint256",
          "name": "id",
          "type": "uint256"
        }
      ],
      "name": "checkSecondarySale",
      "outputs": [
        {
          "internalType": "bool",
          "name": "",
          "type": "bool"
        }
      ],
      "stateMutability": "view",
      "type": "function"
    },
    {
      "inputs": [],
      "name": "contractURI",
      "outputs": [
        {
          "internalType": "string",
          "name": "",
          "type": "string"
        }
      ],
      "stateMutability": "view",
      "type": "function"
    },
    {
      "inputs": [
        {
          "internalType": "uint256",
          "name": "",
          "type": "uint256"
        },
        {
          "internalType": "uint256",
          "name": "",
          "type": "uint256"
        }
      ],
      "name": "fees",
      "outputs": [
        {
          "internalType": "address payable",
          "name": "recipient",
          "type": "address"
        },
        {
          "internalType": "uint256",
          "name": "value",
          "type": "uint256"
        }
      ],
      "stateMutability": "view",
      "type": "function"
    },
    {
      "inputs": [
        {
          "internalType": "uint256",
          "name": "tokenId",
          "type": "uint256"
        }
      ],
      "name": "getApproved",
      "outputs": [
        {
          "internalType": "address",
          "name": "",
          "type": "address"
        }
      ],
      "stateMutability": "view",
      "type": "function"
    },
    {
      "inputs": [
        {
          "internalType": "uint256",
          "name": "id",
          "type": "uint256"
        }
      ],
      "name": "getFeeBps",
      "outputs": [
        {
          "internalType": "uint256[]",
          "name": "",
          "type": "uint256[]"
        }
      ],
      "stateMutability": "view",
      "type": "function"
    },
    {
      "inputs": [
        {
          "internalType": "uint256",
          "name": "id",
          "type": "uint256"
        }
      ],
      "name": "getFeeRecipients",
      "outputs": [
        {
          "internalType": "address payable[]",
          "name": "",
          "type": "address[]"
        }
      ],
      "stateMutability": "view",
      "type": "function"
    },
    {
      "inputs": [
        {
          "internalType": "address",
          "name": "owner",
          "type": "address"
        },
        {
          "internalType": "address",
          "name": "operator",
          "type": "address"
        }
      ],
      "name": "isApprovedForAll",
      "outputs": [
        {
          "internalType": "bool",
          "name": "",
          "type": "bool"
        }
      ],
      "stateMutability": "view",
      "type": "function"
    },
    {
      "inputs": [
        {
          "internalType": "uint256",
          "name": "",
          "type": "uint256"
        }
      ],
      "name": "isSecondarySale",
      "outputs": [
        {
          "internalType": "bool",
          "name": "",
          "type": "bool"
        }
      ],
      "stateMutability": "view",
      "type": "function"
    },
    {
      "inputs": [],
      "name": "name",
      "outputs": [
        {
          "internalType": "string",
          "name": "",
          "type": "string"
        }
      ],
      "stateMutability": "view",
      "type": "function"
    },
    {
      "inputs": [],
      "name": "owner",
      "outputs": [
        {
          "internalType": "address",
          "name": "",
          "type": "address"
        }
      ],
      "stateMutability": "view",
      "type": "function"
    },
    {
      "inputs": [
        {
          "internalType": "uint256",
          "name": "tokenId",
          "type": "uint256"
        }
      ],
      "name": "ownerOf",
      "outputs": [
        {
          "internalType": "address",
          "name": "",
          "type": "address"
        }
      ],
      "stateMutability": "view",
      "type": "function"
    },
    {
      "inputs": [],
      "name": "renounceOwnership",
      "outputs": [],
      "stateMutability": "nonpayable",
      "type": "function"
    },
    {
      "inputs": [
        {
          "internalType": "address",
          "name": "from",
          "type": "address"
        },
        {
          "internalType": "address",
          "name": "to",
          "type": "address"
        },
        {
          "internalType": "uint256",
          "name": "tokenId",
          "type": "uint256"
        }
      ],
      "name": "safeTransferFrom",
      "outputs": [],
      "stateMutability": "nonpayable",
      "type": "function"
    },
    {
      "inputs": [
        {
          "internalType": "address",
          "name": "from",
          "type": "address"
        },
        {
          "internalType": "address",
          "name": "to",
          "type": "address"
        },
        {
          "internalType": "uint256",
          "name": "tokenId",
          "type": "uint256"
        },
        {
          "internalType": "bytes",
          "name": "_data",
          "type": "bytes"
        }
      ],
      "name": "safeTransferFrom",
      "outputs": [],
      "stateMutability": "nonpayable",
      "type": "function"
    },
    {
      "inputs": [
        {
          "internalType": "address",
          "name": "operator",
          "type": "address"
        },
        {
          "internalType": "bool",
          "name": "approved",
          "type": "bool"
        }
      ],
      "name": "setApprovalForAll",
      "outputs": [],
      "stateMutability": "nonpayable",
      "type": "function"
    },
    {
      "inputs": [
        {
          "internalType": "uint256",
          "name": "id",
          "type": "uint256"
        }
      ],
      "name": "setSecondarySale",
      "outputs": [],
      "stateMutability": "nonpayable",
      "type": "function"
    },
    {
      "inputs": [],
      "name": "symbol",
      "outputs": [
        {
          "internalType": "string",
          "name": "",
          "type": "string"
        }
      ],
      "stateMutability": "view",
      "type": "function"
    },
    {
      "inputs": [
        {
          "internalType": "uint256",
          "name": "tokenId",
          "type": "uint256"
        }
      ],
      "name": "tokenURI",
      "outputs": [
        {
          "internalType": "string",
          "name": "",
          "type": "string"
        }
      ],
      "stateMutability": "view",
      "type": "function"
    },
    {
      "inputs": [
        {
          "internalType": "address",
          "name": "from",
          "type": "address"
        },
        {
          "internalType": "address",
          "name": "to",
          "type": "address"
        },
        {
          "internalType": "uint256",
          "name": "tokenId",
          "type": "uint256"
        }
      ],
      "name": "transferFrom",
      "outputs": [],
      "stateMutability": "nonpayable",
      "type": "function"
    },
    {
      "inputs": [
        {
          "internalType": "address",
          "name": "newOwner",
          "type": "address"
        }
      ],
      "name": "transferOwnership",
      "outputs": [],
      "stateMutability": "nonpayable",
      "type": "function"
    },
    {
      "inputs": [
        {
          "internalType": "uint256",
          "name": "_tokenId",
          "type": "uint256"
        },
        {
          "components": [
            {
              "internalType": "address payable",
              "name": "recipient",
              "type": "address"
            },
            {
              "internalType": "uint256",
              "name": "value",
              "type": "uint256"
            }
          ],
          "internalType": "struct ERC721Base.Fee[]",
          "name": "_fees",
          "type": "tuple[]"
        },
        {
          "internalType": "string",
          "name": "_tokenURI",
          "type": "string"
        }
      ],
      "name": "mint",
      "outputs": [],
      "stateMutability": "nonpayable",
      "type": "function"
    },
    {
      "inputs": [
        {
          "internalType": "string",
          "name": "_baseURI",
          "type": "string"
        }
      ],
      "name": "setBaseURI",
      "outputs": [],
      "stateMutability": "nonpayable",
      "type": "function"
    },
    {
      "inputs": [
        {
          "internalType": "string",
          "name": "_contractURI",
          "type": "string"
        }
      ],
      "name": "setContractURI",
      "outputs": [],
      "stateMutability": "nonpayable",
      "type": "function"
    },
    {
      "inputs": [
        {
          "internalType": "bytes4",
          "name": "interfaceId",
          "type": "bytes4"
        }
      ],
      "name": "supportsInterface",
      "outputs": [
        {
          "internalType": "bool",
          "name": "",
          "type": "bool"
        }
      ],
      "stateMutability": "view",
      "type": "function"
    }
  ],
  "bytecode": "0x60806040526064600a553480156200001657600080fd5b50604051620028273803806200282783398101604081905262000039916200037b565b8383838381848462000052632dde656160e21b6200012b565b62000064632aca9c0560e11b6200012b565b8151620000799060019060208501906200021e565b5080516200008f9060029060208401906200021e565b50508151620000a7915060079060208401906200021e565b50620000ba63e8a3d48560e01b6200012b565b50620000cd635b5e139f60e01b6200012b565b620000d881620001af565b50505050620000f6620000f0620001c860201b60201c565b620001cc565b620001217fe37243f27916e395706434720b54132b80ef5cc8c56f39b0df6485e8dfb697cf6200012b565b5050505062000487565b6001600160e01b031980821614156200018a5760405162461bcd60e51b815260206004820152601c60248201527f4552433136353a20696e76616c696420696e7465726661636520696400000000604482015260640160405180910390fd5b6001600160e01b0319166000908152602081905260409020805460ff19166001179055565b8051620001c490600c9060208401906200021e565b5050565b3390565b600d80546001600160a01b038381166001600160a01b0319831681179093556040519116919082907f8be0079c531659141344cd1fd0a4f28419497f9722a3daafe3b4186f6b6457e090600090a35050565b8280546200022c9062000434565b90600052602060002090601f0160209004810192826200025057600085556200029b565b82601f106200026b57805160ff19168380011785556200029b565b828001600101855582156200029b579182015b828111156200029b5782518255916020019190600101906200027e565b50620002a9929150620002ad565b5090565b5b80821115620002a95760008155600101620002ae565b600082601f830112620002d657600080fd5b81516001600160401b0380821115620002f357620002f362000471565b604051601f8301601f19908116603f011681019082821181831017156200031e576200031e62000471565b816040528381526020925086838588010111156200033b57600080fd5b600091505b838210156200035f578582018301518183018401529082019062000340565b83821115620003715760008385830101525b9695505050505050565b600080600080608085870312156200039257600080fd5b84516001600160401b0380821115620003aa57600080fd5b620003b888838901620002c4565b95506020870151915080821115620003cf57600080fd5b620003dd88838901620002c4565b94506040870151915080821115620003f457600080fd5b6200040288838901620002c4565b935060608701519150808211156200041957600080fd5b506200042887828801620002c4565b91505092959194509250565b600181811c908216806200044957607f821691505b602082108114156200046b57634e487b7160e01b600052602260045260246000fd5b50919050565b634e487b7160e01b600052604160045260246000fd5b61239080620004976000396000f3fe608060405234801561001057600080fd5b50600436106101495760003560e01c806301ffc9a71461014e57806306fdde0314610176578063081812fc1461018b578063095ea7b3146101b65780630e883747146101cb5780630ebd4c7f146101ee57806323b872dd1461020e57806342842e0e1461022157806342966c681461023457806355f804b3146102475780635b1d0f4d1461025a5780636308f1cd146102835780636352211e146102b557806370a08231146102c8578063715018a6146102e95780638da5cb5b146102f1578063938e3d7b146102f957806395d89b411461030c578063a22cb46514610314578063b88d4fde14610327578063b9c4d9fb1461033a578063bd442c3b1461035a578063c87b56dd1461036d578063d4e6b3c414610380578063e8a3d485146103a3578063e985e9c5146103ab578063f2fde38b146103be575b600080fd5b61016161015c366004611d4e565b6103d1565b60405190151581526020015b60405180910390f35b61017e6103e2565b60405161016d9190612031565b61019e610199366004611dbc565b610474565b6040516001600160a01b03909116815260200161016d565b6101c96101c4366004611d22565b610501565b005b6101616101d9366004611dbc565b60009081526009602052604090205460ff1690565b6102016101fc366004611dbc565b610612565b60405161016d919061201e565b6101c961021c366004611c2f565b610733565b6101c961022f366004611c2f565b610765565b6101c9610242366004611dbc565b610780565b6101c9610255366004611d88565b6107fa565b6101c9610268366004611dbc565b6000908152600960205260409020805460ff19166001179055565b610296610291366004611edc565b610832565b604080516001600160a01b03909316835260208301919091520161016d565b61019e6102c3366004611dbc565b610878565b6102db6102d6366004611bd9565b6108ef565b60405190815260200161016d565b6101c9610976565b61019e6109b1565b6101c9610307366004611d88565b6109c0565b61017e6109f8565b6101c9610322366004611cef565b610a07565b6101c9610335366004611c70565b610ac8565b61034d610348366004611dbc565b610b00565b60405161016d9190611fd1565b6101c9610368366004611dd5565b610c26565b61017e61037b366004611dbc565b610c3b565b61016161038e366004611dbc565b60096020526000908152604090205460ff1681565b61017e610d13565b6101616103b9366004611bf6565b610da1565b6101c96103cc366004611bd9565b610dcf565b60006103dc82610e6c565b92915050565b6060600180546103f19061224d565b80601f016020809104026020016040519081016040528092919081815260200182805461041d9061224d565b801561046a5780601f1061043f5761010080835404028352916020019161046a565b820191906000526020600020905b81548152906001019060200180831161044d57829003601f168201915b5050505050905090565b600061047f82610e77565b6104e55760405162461bcd60e51b815260206004820152602c60248201527f4552433732313a20617070726f76656420717565727920666f72206e6f6e657860448201526b34b9ba32b73a103a37b5b2b760a11b60648201526084015b60405180910390fd5b506000908152600560205260409020546001600160a01b031690565b600061050c82610878565b9050806001600160a01b0316836001600160a01b0316141561057a5760405162461bcd60e51b815260206004820152602160248201527f4552433732313a20617070726f76616c20746f2063757272656e74206f776e656044820152603960f91b60648201526084016104dc565b336001600160a01b038216148061059657506105968133610da1565b6106035760405162461bcd60e51b815260206004820152603860248201527f4552433732313a20617070726f76652063616c6c6572206973206e6f74206f776044820152771b995c881b9bdc88185c1c1c9bdd995908199bdc88185b1b60421b60648201526084016104dc565b61060d8383610e94565b505050565b6000818152600860209081526040808320805482518185028101850190935280835260609493849084015b82821015610685576000848152602090819020604080518082019091526002850290910180546001600160a01b0316825260019081015482840152908352909201910161063d565b505050509050600081516001600160401b038111156106a6576106a66122f9565b6040519080825280602002602001820160405280156106cf578160200160208202803683370190505b50905060005b825181101561072b578281815181106106f0576106f06122e3565b60200260200101516020015182828151811061070e5761070e6122e3565b60209081029190910101528061072381612288565b9150506106d5565b509392505050565b61073e335b82610f02565b61075a5760405162461bcd60e51b81526004016104dc906120cb565b61060d838383610fcc565b61060d83838360405180602001604052806000815250610ac8565b61078933610738565b6107ee5760405162461bcd60e51b815260206004820152603060248201527f4552433732314275726e61626c653a2063616c6c6572206973206e6f74206f7760448201526f1b995c881b9bdc88185c1c1c9bdd995960821b60648201526084016104dc565b6107f78161115a565b50565b336108036109b1565b6001600160a01b0316146108295760405162461bcd60e51b81526004016104dc90612096565b6107f7816111e3565b6008602052816000526040600020818154811061084e57600080fd5b6000918252602090912060029091020180546001909101546001600160a01b039091169250905082565b6000818152600360205260408120546001600160a01b0316806103dc5760405162461bcd60e51b815260206004820152602960248201527f4552433732313a206f776e657220717565727920666f72206e6f6e657869737460448201526832b73a103a37b5b2b760b91b60648201526084016104dc565b60006001600160a01b03821661095a5760405162461bcd60e51b815260206004820152602a60248201527f4552433732313a2062616c616e636520717565727920666f7220746865207a65604482015269726f206164647265737360b01b60648201526084016104dc565b506001600160a01b031660009081526004602052604090205490565b3361097f6109b1565b6001600160a01b0316146109a55760405162461bcd60e51b81526004016104dc90612096565b6109af60006111fa565b565b600d546001600160a01b031690565b336109c96109b1565b6001600160a01b0316146109ef5760405162461bcd60e51b81526004016104dc90612096565b6107f78161124c565b6060600280546103f19061224d565b6001600160a01b038216331415610a5c5760405162461bcd60e51b815260206004820152601960248201527822a9219b99189d1030b8383937bb32903a379031b0b63632b960391b60448201526064016104dc565b3360008181526006602090815260408083206001600160a01b03871680855290835292819020805460ff191686151590811790915590519081529192917f17307eab39ab6107e8899845ad3d59bd9653f200f220920489ca2b5937696c31910160405180910390a35050565b610ad23383610f02565b610aee5760405162461bcd60e51b81526004016104dc906120cb565b610afa8484848461125f565b50505050565b6000818152600860209081526040808320805482518185028101850190935280835260609493849084015b82821015610b73576000848152602090819020604080518082019091526002850290910180546001600160a01b03168252600190810154828401529083529092019101610b2b565b505050509050600081516001600160401b03811115610b9457610b946122f9565b604051908082528060200260200182016040528015610bbd578160200160208202803683370190505b50905060005b825181101561072b57828181518110610bde57610bde6122e3565b602002602001015160000151828281518110610bfc57610bfc6122e3565b6001600160a01b039092166020928302919091019091015280610c1e81612288565b915050610bc3565b610c31338484611292565b61060d838261168e565b6060610c4682610e77565b610caa5760405162461bcd60e51b815260206004820152602f60248201527f4552433732314d657461646174613a2055524920717565727920666f72206e6f60448201526e3732bc34b9ba32b73a103a37b5b2b760891b60648201526084016104dc565b6000610cc160408051602081019091526000815290565b90506000815111610ce15760405180602001604052806000815250610d0c565b80610ceb84611717565b604051602001610cfc929190611f65565b6040516020818303038152906040525b9392505050565b60078054610d209061224d565b80601f0160208091040260200160405190810160405280929190818152602001828054610d4c9061224d565b8015610d995780601f10610d6e57610100808354040283529160200191610d99565b820191906000526020600020905b815481529060010190602001808311610d7c57829003601f168201915b505050505081565b6001600160a01b03918216600090815260066020908152604080832093909416825291909152205460ff1690565b33610dd86109b1565b6001600160a01b031614610dfe5760405162461bcd60e51b81526004016104dc90612096565b6001600160a01b038116610e635760405162461bcd60e51b815260206004820152602660248201527f4f776e61626c653a206e6577206f776e657220697320746865207a65726f206160448201526564647265737360d01b60648201526084016104dc565b6107f7816111fa565b60006103dc82611814565b6000908152600360205260409020546001600160a01b0316151590565b600081815260056020526040902080546001600160a01b0319166001600160a01b0384169081179091558190610ec982610878565b6001600160a01b03167f8c5be1e5ebec7d5bd14f71427d1e84f3dd0314c0f7b2291e5b200ac8c7c3b92560405160405180910390a45050565b6000610f0d82610e77565b610f6e5760405162461bcd60e51b815260206004820152602c60248201527f4552433732313a206f70657261746f7220717565727920666f72206e6f6e657860448201526b34b9ba32b73a103a37b5b2b760a11b60648201526084016104dc565b6000610f7983610878565b9050806001600160a01b0316846001600160a01b03161480610fb45750836001600160a01b0316610fa984610474565b6001600160a01b0316145b80610fc45750610fc48185610da1565b949350505050565b826001600160a01b0316610fdf82610878565b6001600160a01b0316146110475760405162461bcd60e51b815260206004820152602960248201527f4552433732313a207472616e73666572206f6620746f6b656e2074686174206960448201526839903737ba1037bbb760b91b60648201526084016104dc565b6001600160a01b0382166110a95760405162461bcd60e51b8152602060048201526024808201527f4552433732313a207472616e7366657220746f20746865207a65726f206164646044820152637265737360e01b60648201526084016104dc565b6110b4600082610e94565b6001600160a01b03831660009081526004602052604081208054600192906110dd90849061220a565b90915550506001600160a01b038216600090815260046020526040812080546001929061110b9084906121de565b909155505060008181526003602052604080822080546001600160a01b0319166001600160a01b03868116918217909255915184939187169160008051602061233b83398151915291a4505050565b600061116582610878565b9050611172600083610e94565b6001600160a01b038116600090815260046020526040812080546001929061119b90849061220a565b909155505060008281526003602052604080822080546001600160a01b0319169055518391906001600160a01b0384169060008051602061233b833981519152908390a45050565b80516111f690600c906020840190611ac9565b5050565b600d80546001600160a01b038381166001600160a01b0319831681179093556040519116919082907f8be0079c531659141344cd1fd0a4f28419497f9722a3daafe3b4186f6b6457e090600090a35050565b80516111f6906007906020840190611ac9565b61126a848484610fcc565b61127684848484611854565b610afa5760405162461bcd60e51b81526004016104dc90612044565b600a54815111156112f75760405162461bcd60e51b815260206004820152602960248201527f416d6f756e74206f662066656520726563697069656e74732063616e2774206560448201526807863656564203130360bc1b60648201526084016104dc565b6000805b825181101561134857611334838281518110611319576113196122e3565b6020026020010151602001518361196190919063ffffffff16565b91508061134081612288565b9150506112fb565b506127108111156113a95760405162461bcd60e51b815260206004820152602560248201527f546f74616c20666565206270732073686f756c64206e6f742065786365656420604482015264031303030360dc1b60648201526084016104dc565b6113b3848461196d565b600082516001600160401b038111156113ce576113ce6122f9565b6040519080825280602002602001820160405280156113f7578160200160208202803683370190505b509050600083516001600160401b03811115611415576114156122f9565b60405190808252806020026020018201604052801561143e578160200160208202803683370190505b50905060005b84518110156116425760006001600160a01b031685828151811061146a5761146a6122e3565b6020026020010151600001516001600160a01b031614156114cb5760405162461bcd60e51b815260206004820152601b60248201527a149958da5c1a595b9d081cda1bdd5b19081899481c1c995cd95b9d602a1b60448201526064016104dc565b8481815181106114dd576114dd6122e3565b602002602001015160200151600014156115385760405162461bcd60e51b815260206004820152601c60248201527b4665652076616c75652073686f756c6420626520706f73697469766560201b60448201526064016104dc565b6000868152600860205260409020855186908390811061155a5761155a6122e3565b602090810291909101810151825460018082018555600094855293839020825160029092020180546001600160a01b0319166001600160a01b0390921691909117815591015191015584518590829081106115b7576115b76122e3565b6020026020010151600001518382815181106115d5576115d56122e3565b60200260200101906001600160a01b031690816001600160a01b031681525050848181518110611607576116076122e3565b602002602001015160200151828281518110611625576116256122e3565b60209081029190910101528061163a81612288565b915050611444565b50835115611686577f99aba1d63749cfd5ad1afda7c4663840924d54eb5f005bbbeadedc6ec13674b285838360405161167d9392919061211c565b60405180910390a15b505050505050565b61169782610e77565b6116f85760405162461bcd60e51b815260206004820152602c60248201527f4552433732314d657461646174613a2055524920736574206f66206e6f6e657860448201526b34b9ba32b73a103a37b5b2b760a11b60648201526084016104dc565b6000828152600b60209081526040909120825161060d92840190611ac9565b60608161173b5750506040805180820190915260018152600360fc1b602082015290565b8160005b8115611765578061174f81612288565b915061175e9050600a836121f6565b915061173f565b6000816001600160401b0381111561177f5761177f6122f9565b6040519080825280601f01601f1916602001820160405280156117a9576020820181803683370190505b5090505b8415610fc4576117be60018361220a565b91506117cb600a866122a3565b6117d69060306121de565b60f81b8183815181106117eb576117eb6122e3565b60200101906001600160f81b031916908160001a90535061180d600a866121f6565b94506117ad565b60006001600160e01b031982166380ac58cd60e01b148061184557506001600160e01b03198216635b5e139f60e01b145b806103dc57506103dc82611a8d565b60006001600160a01b0384163b1561195657604051630a85bd0160e11b81526001600160a01b0385169063150b7a0290611898903390899088908890600401611f94565b602060405180830381600087803b1580156118b257600080fd5b505af19250505080156118e2575060408051601f3d908101601f191682019092526118df91810190611d6b565b60015b61193c573d808015611910576040519150601f19603f3d011682016040523d82523d6000602084013e611915565b606091505b5080516119345760405162461bcd60e51b81526004016104dc90612044565b805181602001fd5b6001600160e01b031916630a85bd0160e11b149050610fc4565b506001949350505050565b6000610d0c82846121de565b6001600160a01b0382166119c35760405162461bcd60e51b815260206004820181905260248201527f4552433732313a206d696e7420746f20746865207a65726f206164647265737360448201526064016104dc565b6119cc81610e77565b15611a185760405162461bcd60e51b815260206004820152601c60248201527b115490cdcc8c4e881d1bdad95b88185b1c9958591e481b5a5b9d195960221b60448201526064016104dc565b6001600160a01b0382166000908152600460205260408120805460019290611a419084906121de565b909155505060008181526003602052604080822080546001600160a01b0319166001600160a01b038616908117909155905183929060008051602061233b833981519152908290a45050565b60006301ffc9a760e01b6001600160e01b0319831614806103dc5750506001600160e01b03191660009081526020819052604090205460ff1690565b828054611ad59061224d565b90600052602060002090601f016020900481019282611af75760008555611b3d565b82601f10611b1057805160ff1916838001178555611b3d565b82800160010185558215611b3d579182015b82811115611b3d578251825591602001919060010190611b22565b50611b49929150611b4d565b5090565b5b80821115611b495760008155600101611b4e565b60006001600160401b03831115611b7b57611b7b6122f9565b611b8e601f8401601f19166020016121ae565b9050828152838383011115611ba257600080fd5b828260208301376000602084830101529392505050565b600082601f830112611bca57600080fd5b610d0c83833560208501611b62565b600060208284031215611beb57600080fd5b8135610d0c8161230f565b60008060408385031215611c0957600080fd5b8235611c148161230f565b91506020830135611c248161230f565b809150509250929050565b600080600060608486031215611c4457600080fd5b8335611c4f8161230f565b92506020840135611c5f8161230f565b929592945050506040919091013590565b60008060008060808587031215611c8657600080fd5b8435611c918161230f565b93506020850135611ca18161230f565b92506040850135915060608501356001600160401b03811115611cc357600080fd5b8501601f81018713611cd457600080fd5b611ce387823560208401611b62565b91505092959194509250565b60008060408385031215611d0257600080fd5b8235611d0d8161230f565b915060208301358015158114611c2457600080fd5b60008060408385031215611d3557600080fd5b8235611d408161230f565b946020939093013593505050565b600060208284031215611d6057600080fd5b8135610d0c81612324565b600060208284031215611d7d57600080fd5b8151610d0c81612324565b600060208284031215611d9a57600080fd5b81356001600160401b03811115611db057600080fd5b610fc484828501611bb9565b600060208284031215611dce57600080fd5b5035919050565b600080600060608486031215611dea57600080fd5b833592506020808501356001600160401b0380821115611e0957600080fd5b818701915087601f830112611e1d57600080fd5b813581811115611e2f57611e2f6122f9565b611e3d848260051b016121ae565b8082825285820191508585018b878560061b8801011115611e5d57600080fd5b600095505b83861015611eab57604080828e031215611e7b57600080fd5b611e83612186565b8235611e8e8161230f565b815282890135898201528452600196909601959287019201611e62565b50965050506040870135925080831115611ec457600080fd5b5050611ed286828701611bb9565b9150509250925092565b60008060408385031215611eef57600080fd5b50508035926020909101359150565b600081518084526020808501945080840160005b83811015611f2e57815187529582019590820190600101611f12565b509495945050505050565b60008151808452611f51816020860160208601612221565b601f01601f19169290920160200192915050565b60008351611f77818460208801612221565b835190830190611f8b818360208801612221565b01949350505050565b6001600160a01b0385811682528416602082015260408101839052608060608201819052600090611fc790830184611f39565b9695505050505050565b6020808252825182820181905260009190848201906040850190845b818110156120125783516001600160a01b031683529284019291840191600101611fed565b50909695505050505050565b602081526000610d0c6020830184611efe565b602081526000610d0c6020830184611f39565b60208082526032908201527f4552433732313a207472616e7366657220746f206e6f6e20455243373231526560408201527131b2b4bb32b91034b6b83632b6b2b73a32b960711b606082015260800190565b6020808252818101527f4f776e61626c653a2063616c6c6572206973206e6f7420746865206f776e6572604082015260600190565b60208082526031908201527f4552433732313a207472616e736665722063616c6c6572206973206e6f74206f6040820152701ddb995c881b9bdc88185c1c1c9bdd9959607a1b606082015260800190565b6000606082018583526020606081850152818651808452608086019150828801935060005b818110156121665784516001600160a01b031683529383019391830191600101612141565b5050848103604086015261217a8187611efe565b98975050505050505050565b604080519081016001600160401b03811182821017156121a8576121a86122f9565b60405290565b604051601f8201601f191681016001600160401b03811182821017156121d6576121d66122f9565b604052919050565b600082198211156121f1576121f16122b7565b500190565b600082612205576122056122cd565b500490565b60008282101561221c5761221c6122b7565b500390565b60005b8381101561223c578181015183820152602001612224565b83811115610afa5750506000910152565b600181811c9082168061226157607f821691505b6020821081141561228257634e487b7160e01b600052602260045260246000fd5b50919050565b600060001982141561229c5761229c6122b7565b5060010190565b6000826122b2576122b26122cd565b500690565b634e487b7160e01b600052601160045260246000fd5b634e487b7160e01b600052601260045260246000fd5b634e487b7160e01b600052603260045260246000fd5b634e487b7160e01b600052604160045260246000fd5b6001600160a01b03811681146107f757600080fd5b6001600160e01b0319811681146107f757600080fdfeddf252ad1be2c89b69c2b068fc378daa952ba7f163c4a11628f55a4df523b3efa2646970667358221220e2cbb39c882b2c14d10a8c3ed4cce0cd69b1e677ad816c63fc1150bcb83b071864736f6c63430008070033",
  "immutableReferences": {},
  "source": "// SPDX-License-Identifier: UNLICENSED\r\n\r\npragma solidity ^0.8.4;\r\npragma experimental ABIEncoderV2;\r\n\r\nimport \"@openzeppelin/contracts/access/Ownable.sol\";\r\nimport \"@openzeppelin/contracts/token/ERC721/extensions/ERC721Burnable.sol\";\r\nimport \"@openzeppelin/contracts/token/ERC721/extensions/IERC721Metadata.sol\";\r\nimport \"@openzeppelin/contracts/utils/cryptography/ECDSA.sol\";\r\nimport \"@openzeppelin/contracts/utils/introspection/IERC165.sol\";\r\n\r\nimport \"./ERC721Base.sol\";\r\n\r\n/**\r\n * @title IkonicERC721Token\r\n * @dev anyone can mint token.\r\n */\r\ncontract IkonicERC721Token is\r\n    IERC721,\r\n    IERC721Metadata,\r\n    ERC721Burnable,\r\n    ERC721Base,\r\n    Ownable\r\n{\r\n    using ECDSA for bytes32;\r\n\r\n    /**\r\n     * @dev Constructor Function\r\n     * @param _name name of the token ex: Rarible\r\n     * @param _symbol symbol of the token ex: RARI\r\n     * @param _contractURI URI of contract ex: https://api-mainnet.rarible.com/contractMetadata/{address}\r\n     * @param _baseURI ex: https://ipfs.ikonic.com\r\n    */\r\n    constructor(\r\n        string memory _name,\r\n        string memory _symbol,\r\n        string memory _contractURI,\r\n        string memory _baseURI\r\n    ) ERC721Base(_name, _symbol, _contractURI, _baseURI) {\r\n        _registerInterface(bytes4(keccak256(\"MINT_WITH_ADDRESS\")));\r\n    }\r\n\r\n    function mint(\r\n        uint256 _tokenId,\r\n        Fee[] memory _fees,\r\n        string memory _tokenURI\r\n    ) public {\r\n        _mint(msg.sender, _tokenId, _fees);\r\n        _setTokenURI(_tokenId, _tokenURI);\r\n    }\r\n\r\n    function setBaseURI(string memory _baseURI) public onlyOwner {\r\n        _setBaseURI(_baseURI);\r\n    }\r\n\r\n    function setContractURI(string memory _contractURI) public onlyOwner {\r\n        _setContractURI(_contractURI);\r\n    }\r\n\r\n    function supportsInterface(bytes4 interfaceId) public view virtual override(ERC721Base, ERC721, IERC165) returns (bool) {\r\n        return super.supportsInterface(interfaceId);\r\n    }\r\n}\r\n",
  "sourcePath": "E:\\BlockChain_Workspace\\MV\\ikonic-contracts\\contracts\\tokens\\IkonicERC721Token.sol",
  "compiler": {
    "name": "solc",
    "version": "0.8.7+commit.e28d00a7.Emscripten.clang"
  },
  "schemaVersion": "3.4.2",
  "updatedAt": "2021-09-08T12:26:57.656Z",
  "devdoc": {
    "details": "anyone can mint token.",
    "kind": "dev",
    "methods": {
      "approve(address,uint256)": {
        "details": "See {IERC721-approve}."
      },
      "balanceOf(address)": {
        "details": "See {IERC721-balanceOf}."
      },
      "burn(uint256)": {
        "details": "Burns `tokenId`. See {ERC721-_burn}. Requirements: - The caller must own `tokenId` or be an approved operator."
      },
      "constructor": {
        "details": "Constructor Function",
        "params": {
          "_baseURI": "ex: https://ipfs.ikonic.com",
          "_contractURI": "URI of contract ex: https://api-mainnet.rarible.com/contractMetadata/{address}",
          "_name": "name of the token ex: Rarible",
          "_symbol": "symbol of the token ex: RARI"
        }
      },
      "getApproved(uint256)": {
        "details": "See {IERC721-getApproved}."
      },
      "isApprovedForAll(address,address)": {
        "details": "See {IERC721-isApprovedForAll}."
      },
      "name()": {
        "details": "See {IERC721Metadata-name}."
      },
      "owner()": {
        "details": "Returns the address of the current owner."
      },
      "ownerOf(uint256)": {
        "details": "See {IERC721-ownerOf}."
      },
      "renounceOwnership()": {
        "details": "Leaves the contract without owner. It will not be possible to call `onlyOwner` functions anymore. Can only be called by the current owner. NOTE: Renouncing ownership will leave the contract without an owner, thereby removing any functionality that is only available to the owner."
      },
      "safeTransferFrom(address,address,uint256)": {
        "details": "See {IERC721-safeTransferFrom}."
      },
      "safeTransferFrom(address,address,uint256,bytes)": {
        "details": "See {IERC721-safeTransferFrom}."
      },
      "setApprovalForAll(address,bool)": {
        "details": "See {IERC721-setApprovalForAll}."
      },
      "symbol()": {
        "details": "See {IERC721Metadata-symbol}."
      },
      "tokenURI(uint256)": {
        "details": "See {IERC721Metadata-tokenURI}."
      },
      "transferFrom(address,address,uint256)": {
        "details": "See {IERC721-transferFrom}."
      },
      "transferOwnership(address)": {
        "details": "Transfers ownership of the contract to a new account (`newOwner`). Can only be called by the current owner."
      }
    },
    "title": "IkonicERC721Token",
    "version": 1
  },
  "userdoc": {
    "kind": "user",
    "methods": {},
    "version": 1
  }
}