{
  "contractName": "OperatorRole",
  "abi": [
    {
      "inputs": [],
      "stateMutability": "nonpayable",
      "type": "constructor"
    },
    {
      "anonymous": false,
      "inputs": [
        {
          "indexed": true,
          "internalType": "bytes32",
          "name": "role",
          "type": "bytes32"
        },
        {
          "indexed": true,
          "internalType": "bytes32",
          "name": "previousAdminRole",
          "type": "bytes32"
        },
        {
          "indexed": true,
          "internalType": "bytes32",
          "name": "newAdminRole",
          "type": "bytes32"
        }
      ],
      "name": "RoleAdminChanged",
      "type": "event"
    },
    {
      "anonymous": false,
      "inputs": [
        {
          "indexed": true,
          "internalType": "bytes32",
          "name": "role",
          "type": "bytes32"
        },
        {
          "indexed": true,
          "internalType": "address",
          "name": "account",
          "type": "address"
        },
        {
          "indexed": true,
          "internalType": "address",
          "name": "sender",
          "type": "address"
        }
      ],
      "name": "RoleGranted",
      "type": "event"
    },
    {
      "anonymous": false,
      "inputs": [
        {
          "indexed": true,
          "internalType": "bytes32",
          "name": "role",
          "type": "bytes32"
        },
        {
          "indexed": true,
          "internalType": "address",
          "name": "account",
          "type": "address"
        },
        {
          "indexed": true,
          "internalType": "address",
          "name": "sender",
          "type": "address"
        }
      ],
      "name": "RoleRevoked",
      "type": "event"
    },
    {
      "inputs": [],
      "name": "DEFAULT_ADMIN_ROLE",
      "outputs": [
        {
          "internalType": "bytes32",
          "name": "",
          "type": "bytes32"
        }
      ],
      "stateMutability": "view",
      "type": "function"
    },
    {
      "inputs": [],
      "name": "OPERATOR_ROLE",
      "outputs": [
        {
          "internalType": "bytes32",
          "name": "",
          "type": "bytes32"
        }
      ],
      "stateMutability": "view",
      "type": "function"
    },
    {
      "inputs": [
        {
          "internalType": "bytes32",
          "name": "role",
          "type": "bytes32"
        }
      ],
      "name": "getRoleAdmin",
      "outputs": [
        {
          "internalType": "bytes32",
          "name": "",
          "type": "bytes32"
        }
      ],
      "stateMutability": "view",
      "type": "function"
    },
    {
      "inputs": [
        {
          "internalType": "bytes32",
          "name": "role",
          "type": "bytes32"
        },
        {
          "internalType": "address",
          "name": "account",
          "type": "address"
        }
      ],
      "name": "grantRole",
      "outputs": [],
      "stateMutability": "nonpayable",
      "type": "function"
    },
    {
      "inputs": [
        {
          "internalType": "bytes32",
          "name": "role",
          "type": "bytes32"
        },
        {
          "internalType": "address",
          "name": "account",
          "type": "address"
        }
      ],
      "name": "hasRole",
      "outputs": [
        {
          "internalType": "bool",
          "name": "",
          "type": "bool"
        }
      ],
      "stateMutability": "view",
      "type": "function"
    },
    {
      "inputs": [
        {
          "internalType": "bytes32",
          "name": "role",
          "type": "bytes32"
        },
        {
          "internalType": "address",
          "name": "account",
          "type": "address"
        }
      ],
      "name": "renounceRole",
      "outputs": [],
      "stateMutability": "nonpayable",
      "type": "function"
    },
    {
      "inputs": [
        {
          "internalType": "bytes32",
          "name": "role",
          "type": "bytes32"
        },
        {
          "internalType": "address",
          "name": "account",
          "type": "address"
        }
      ],
      "name": "revokeRole",
      "outputs": [],
      "stateMutability": "nonpayable",
      "type": "function"
    },
    {
      "inputs": [
        {
          "internalType": "bytes4",
          "name": "interfaceId",
          "type": "bytes4"
        }
      ],
      "name": "supportsInterface",
      "outputs": [
        {
          "internalType": "bool",
          "name": "",
          "type": "bool"
        }
      ],
      "stateMutability": "view",
      "type": "function"
    },
    {
      "inputs": [
        {
          "internalType": "address",
          "name": "_account",
          "type": "address"
        }
      ],
      "name": "addOperator",
      "outputs": [],
      "stateMutability": "nonpayable",
      "type": "function"
    },
    {
      "inputs": [
        {
          "internalType": "address",
          "name": "_account",
          "type": "address"
        }
      ],
      "name": "removeOperator",
      "outputs": [],
      "stateMutability": "nonpayable",
      "type": "function"
    }
  ],
  "bytecode": "0x608060405234801561001057600080fd5b5061001c600033610021565b6100cd565b61002b828261002f565b5050565b6000828152602081815260408083206001600160a01b038516845290915290205460ff1661002b576000828152602081815260408083206001600160a01b03851684529091529020805460ff191660011790556100893390565b6001600160a01b0316816001600160a01b0316837f2f8788117e7eff1d82e926ec794901d17c78024a50270940304540a733656f0d60405160405180910390a45050565b6108b5806100dc6000396000f3fe608060405234801561001057600080fd5b506004361061008e5760003560e01c806301ffc9a714610093578063248a9ca3146100bb5780632f2ff15d146100dc57806336568abe146100f157806391d14854146101045780639870d7fe14610117578063a217fddf1461012a578063ac8a584a14610132578063d547741f14610145578063f5b541a614610158575b600080fd5b6100a66100a136600461069e565b61016d565b60405190151581526020015b60405180910390f35b6100ce6100c9366004610659565b6101a4565b6040519081526020016100b2565b6100ef6100ea366004610672565b6101b9565b005b6100ef6100ff366004610672565b6101db565b6100a6610112366004610672565b61025e565b6100ef61012536600461063e565b610287565b6100ce600081565b6100ef61014036600461063e565b6102c7565b6100ef610153366004610672565b610300565b6100ce60008051602061086083398151915281565b60006001600160e01b03198216637965db0b60e01b148061019e57506301ffc9a760e01b6001600160e01b03198316145b92915050565b60009081526020819052604090206001015490565b6101c2826101a4565b6101cc813361031d565b6101d68383610381565b505050565b6001600160a01b03811633146102505760405162461bcd60e51b815260206004820152602f60248201527f416363657373436f6e74726f6c3a2063616e206f6e6c792072656e6f756e636560448201526e103937b632b9903337b91039b2b63360891b60648201526084015b60405180910390fd5b61025a8282610405565b5050565b6000918252602082815260408084206001600160a01b0393909316845291905290205460ff1690565b6102903361046a565b6102ac5760405162461bcd60e51b81526004016102479061076a565b6102c460008051602061086083398151915282610476565b50565b6102d03361046a565b6102ec5760405162461bcd60e51b81526004016102479061076a565b6102c4600080516020610860833981519152825b610309826101a4565b610313813361031d565b6101d68383610405565b610327828261025e565b61025a5761033f816001600160a01b03166014610480565b61034a836020610480565b60405160200161035b9291906106c8565b60408051601f198184030181529082905262461bcd60e51b825261024791600401610737565b61038b828261025e565b61025a576000828152602081815260408083206001600160a01b03851684529091529020805460ff191660011790556103c13390565b6001600160a01b0316816001600160a01b0316837f2f8788117e7eff1d82e926ec794901d17c78024a50270940304540a733656f0d60405160405180910390a45050565b61040f828261025e565b1561025a576000828152602081815260408083206001600160a01b0385168085529252808320805460ff1916905551339285917ff6391f5c32d9c69d2a47ea670b442974b53935d1edc7fd64eb21e047a839171b9190a45050565b600061019e818361025e565b61025a8282610381565b6060600061048f8360026107b7565b61049a90600261079f565b6001600160401b038111156104b1576104b1610849565b6040519080825280601f01601f1916602001820160405280156104db576020820181803683370190505b509050600360fc1b816000815181106104f6576104f6610833565b60200101906001600160f81b031916908160001a905350600f60fb1b8160018151811061052557610525610833565b60200101906001600160f81b031916908160001a90535060006105498460026107b7565b61055490600161079f565b90505b60018111156105cc576f181899199a1a9b1b9c1cb0b131b232b360811b85600f166010811061058857610588610833565b1a60f81b82828151811061059e5761059e610833565b60200101906001600160f81b031916908160001a90535060049490941c936105c581610806565b9050610557565b50831561061b5760405162461bcd60e51b815260206004820181905260248201527f537472696e67733a20686578206c656e67746820696e73756666696369656e746044820152606401610247565b9392505050565b80356001600160a01b038116811461063957600080fd5b919050565b60006020828403121561065057600080fd5b61061b82610622565b60006020828403121561066b57600080fd5b5035919050565b6000806040838503121561068557600080fd5b8235915061069560208401610622565b90509250929050565b6000602082840312156106b057600080fd5b81356001600160e01b03198116811461061b57600080fd5b76020b1b1b2b9b9a1b7b73a3937b61d1030b1b1b7bab73a1604d1b8152600083516106fa8160178501602088016107d6565b7001034b99036b4b9b9b4b733903937b6329607d1b601791840191820152835161072b8160288401602088016107d6565b01602801949350505050565b60208152600082518060208401526107568160408501602087016107d6565b601f01601f19169190910160400192915050565b6020808252818101527f4f776e61626c653a2063616c6c6572206973206e6f74207468652061646d696e604082015260600190565b600082198211156107b2576107b261081d565b500190565b60008160001904831182151516156107d1576107d161081d565b500290565b60005b838110156107f15781810151838201526020016107d9565b83811115610800576000848401525b50505050565b6000816108155761081561081d565b506000190190565b634e487b7160e01b600052601160045260246000fd5b634e487b7160e01b600052603260045260246000fd5b634e487b7160e01b600052604160045260246000fdfe97667070c54ef182b0f5858b034beac1b6f3089aa2d3188bb1e8929f4fa9b929a26469706673582212204ccff4eff03f12165760744245c59e6ae6e4f6efd1abb76fa6071ce2ba31104d64736f6c63430008070033",
  "immutableReferences": {},
  "source": "pragma solidity ^0.8.4;\r\npragma experimental ABIEncoderV2;\r\n// SPDX-License-Identifier: UNLICENSED\r\n\r\nimport \"@openzeppelin/contracts/access/AccessControl.sol\";\r\n\r\ncontract OperatorRole is AccessControl {\r\n    \r\n    bytes32 public constant OPERATOR_ROLE = keccak256(\"OPERATOR_ROLE\");\r\n\r\n    modifier onlyAdmin() {\r\n        require(isAdmin(_msgSender()), \"Ownable: caller is not the admin\");\r\n        _;\r\n    }\r\n\r\n    modifier onlyOperator() {\r\n        require(isOperator(_msgSender()), \"Ownable: caller is not the operator\");\r\n        _;\r\n    }\r\n\r\n    constructor() {\r\n        _setupRole(DEFAULT_ADMIN_ROLE, _msgSender());\r\n    }\r\n\r\n    function addOperator(address _account) public onlyAdmin {\r\n        _setupRole(OPERATOR_ROLE , _account);\r\n    }\r\n\r\n    function removeOperator(address _account) public onlyAdmin {\r\n        revokeRole(OPERATOR_ROLE , _account);\r\n    }\r\n\r\n    function isAdmin(address _account) internal virtual view returns(bool) {\r\n        return hasRole(DEFAULT_ADMIN_ROLE , _account);\r\n    }\r\n\r\n    function isOperator(address _account) internal virtual view returns(bool) {\r\n        return hasRole(OPERATOR_ROLE , _account);\r\n    }\r\n}",
  "sourcePath": "E:\\BlockChain_Workspace\\MV\\ikonic-contracts\\contracts\\roles\\OperatorRole.sol",
  "compiler": {
    "name": "solc",
    "version": "0.8.7+commit.e28d00a7.Emscripten.clang"
  },
  "schemaVersion": "3.4.2",
  "updatedAt": "2021-09-08T12:26:57.529Z",
  "devdoc": {
    "kind": "dev",
    "methods": {
      "getRoleAdmin(bytes32)": {
        "details": "Returns the admin role that controls `role`. See {grantRole} and {revokeRole}. To change a role's admin, use {_setRoleAdmin}."
      },
      "grantRole(bytes32,address)": {
        "details": "Grants `role` to `account`. If `account` had not been already granted `role`, emits a {RoleGranted} event. Requirements: - the caller must have ``role``'s admin role."
      },
      "hasRole(bytes32,address)": {
        "details": "Returns `true` if `account` has been granted `role`."
      },
      "renounceRole(bytes32,address)": {
        "details": "Revokes `role` from the calling account. Roles are often managed via {grantRole} and {revokeRole}: this function's purpose is to provide a mechanism for accounts to lose their privileges if they are compromised (such as when a trusted device is misplaced). If the calling account had been granted `role`, emits a {RoleRevoked} event. Requirements: - the caller must be `account`."
      },
      "revokeRole(bytes32,address)": {
        "details": "Revokes `role` from `account`. If `account` had been granted `role`, emits a {RoleRevoked} event. Requirements: - the caller must have ``role``'s admin role."
      },
      "supportsInterface(bytes4)": {
        "details": "See {IERC165-supportsInterface}."
      }
    },
    "version": 1
  },
  "userdoc": {
    "kind": "user",
    "methods": {},
    "version": 1
  }
}