{
  "contractName": "SignerRole",
  "abi": [
    {
      "inputs": [],
      "stateMutability": "nonpayable",
      "type": "constructor"
    },
    {
      "anonymous": false,
      "inputs": [
        {
          "indexed": true,
          "internalType": "bytes32",
          "name": "role",
          "type": "bytes32"
        },
        {
          "indexed": true,
          "internalType": "bytes32",
          "name": "previousAdminRole",
          "type": "bytes32"
        },
        {
          "indexed": true,
          "internalType": "bytes32",
          "name": "newAdminRole",
          "type": "bytes32"
        }
      ],
      "name": "RoleAdminChanged",
      "type": "event"
    },
    {
      "anonymous": false,
      "inputs": [
        {
          "indexed": true,
          "internalType": "bytes32",
          "name": "role",
          "type": "bytes32"
        },
        {
          "indexed": true,
          "internalType": "address",
          "name": "account",
          "type": "address"
        },
        {
          "indexed": true,
          "internalType": "address",
          "name": "sender",
          "type": "address"
        }
      ],
      "name": "RoleGranted",
      "type": "event"
    },
    {
      "anonymous": false,
      "inputs": [
        {
          "indexed": true,
          "internalType": "bytes32",
          "name": "role",
          "type": "bytes32"
        },
        {
          "indexed": true,
          "internalType": "address",
          "name": "account",
          "type": "address"
        },
        {
          "indexed": true,
          "internalType": "address",
          "name": "sender",
          "type": "address"
        }
      ],
      "name": "RoleRevoked",
      "type": "event"
    },
    {
      "inputs": [],
      "name": "DEFAULT_ADMIN_ROLE",
      "outputs": [
        {
          "internalType": "bytes32",
          "name": "",
          "type": "bytes32"
        }
      ],
      "stateMutability": "view",
      "type": "function"
    },
    {
      "inputs": [],
      "name": "SIGNER_ROLE",
      "outputs": [
        {
          "internalType": "bytes32",
          "name": "",
          "type": "bytes32"
        }
      ],
      "stateMutability": "view",
      "type": "function"
    },
    {
      "inputs": [
        {
          "internalType": "bytes32",
          "name": "role",
          "type": "bytes32"
        }
      ],
      "name": "getRoleAdmin",
      "outputs": [
        {
          "internalType": "bytes32",
          "name": "",
          "type": "bytes32"
        }
      ],
      "stateMutability": "view",
      "type": "function"
    },
    {
      "inputs": [
        {
          "internalType": "bytes32",
          "name": "role",
          "type": "bytes32"
        },
        {
          "internalType": "address",
          "name": "account",
          "type": "address"
        }
      ],
      "name": "grantRole",
      "outputs": [],
      "stateMutability": "nonpayable",
      "type": "function"
    },
    {
      "inputs": [
        {
          "internalType": "bytes32",
          "name": "role",
          "type": "bytes32"
        },
        {
          "internalType": "address",
          "name": "account",
          "type": "address"
        }
      ],
      "name": "hasRole",
      "outputs": [
        {
          "internalType": "bool",
          "name": "",
          "type": "bool"
        }
      ],
      "stateMutability": "view",
      "type": "function"
    },
    {
      "inputs": [
        {
          "internalType": "bytes32",
          "name": "role",
          "type": "bytes32"
        },
        {
          "internalType": "address",
          "name": "account",
          "type": "address"
        }
      ],
      "name": "renounceRole",
      "outputs": [],
      "stateMutability": "nonpayable",
      "type": "function"
    },
    {
      "inputs": [
        {
          "internalType": "bytes32",
          "name": "role",
          "type": "bytes32"
        },
        {
          "internalType": "address",
          "name": "account",
          "type": "address"
        }
      ],
      "name": "revokeRole",
      "outputs": [],
      "stateMutability": "nonpayable",
      "type": "function"
    },
    {
      "inputs": [
        {
          "internalType": "bytes4",
          "name": "interfaceId",
          "type": "bytes4"
        }
      ],
      "name": "supportsInterface",
      "outputs": [
        {
          "internalType": "bool",
          "name": "",
          "type": "bool"
        }
      ],
      "stateMutability": "view",
      "type": "function"
    },
    {
      "inputs": [
        {
          "internalType": "address",
          "name": "_account",
          "type": "address"
        }
      ],
      "name": "addSigner",
      "outputs": [],
      "stateMutability": "nonpayable",
      "type": "function"
    },
    {
      "inputs": [
        {
          "internalType": "address",
          "name": "_account",
          "type": "address"
        }
      ],
      "name": "removeSigner",
      "outputs": [],
      "stateMutability": "nonpayable",
      "type": "function"
    },
    {
      "inputs": [
        {
          "internalType": "address",
          "name": "_account",
          "type": "address"
        }
      ],
      "name": "isSigner",
      "outputs": [
        {
          "internalType": "bool",
          "name": "",
          "type": "bool"
        }
      ],
      "stateMutability": "view",
      "type": "function"
    }
  ],
  "bytecode": "0x608060405234801561001057600080fd5b5061001c600033610021565b6100cd565b61002b828261002f565b5050565b6000828152602081815260408083206001600160a01b038516845290915290205460ff1661002b576000828152602081815260408083206001600160a01b03851684529091529020805460ff191660011790556100893390565b6001600160a01b0316816001600160a01b0316837f2f8788117e7eff1d82e926ec794901d17c78024a50270940304540a733656f0d60405160405180910390a45050565b6108e7806100dc6000396000f3fe608060405234801561001057600080fd5b50600436106100995760003560e01c806301ffc9a71461009e5780630e316ab7146100c6578063248a9ca3146100db5780632f2ff15d146100fc57806336568abe1461010f5780637df73e271461012257806391d1485414610135578063a1ebf35d14610148578063a217fddf1461015d578063d547741f14610165578063eb12d61e14610178575b600080fd5b6100b16100ac3660046106d0565b61018b565b60405190151581526020015b60405180910390f35b6100d96100d4366004610670565b6101c2565b005b6100ee6100e936600461068b565b61020b565b6040519081526020016100bd565b6100d961010a3660046106a4565b610220565b6100d961011d3660046106a4565b610242565b6100b1610130366004610670565b6102c0565b6100b16101433660046106a4565b6102d6565b6100ee60008051602061089283398151915281565b6100ee600081565b6100d96101733660046106a4565b6102ff565b6100d9610186366004610670565b61031c565b60006001600160e01b03198216637965db0b60e01b14806101bc57506301ffc9a760e01b6001600160e01b03198316145b92915050565b6101cb33610359565b6101f05760405162461bcd60e51b81526004016101e79061079c565b60405180910390fd5b610208600080516020610892833981519152826102ff565b50565b60009081526020819052604090206001015490565b6102298261020b565b6102338133610365565b61023d83836103c9565b505050565b6001600160a01b03811633146102b25760405162461bcd60e51b815260206004820152602f60248201527f416363657373436f6e74726f6c3a2063616e206f6e6c792072656e6f756e636560448201526e103937b632b9903337b91039b2b63360891b60648201526084016101e7565b6102bc828261044d565b5050565b60006101bc600080516020610892833981519152835b6000918252602082815260408084206001600160a01b0393909316845291905290205460ff1690565b6103088261020b565b6103128133610365565b61023d838361044d565b61032533610359565b6103415760405162461bcd60e51b81526004016101e79061079c565b61020860008051602061089283398151915282610220565b60006101bc81836102d6565b61036f82826102d6565b6102bc57610387816001600160a01b031660146104b2565b6103928360206104b2565b6040516020016103a39291906106fa565b60408051601f198184030181529082905262461bcd60e51b82526101e791600401610769565b6103d382826102d6565b6102bc576000828152602081815260408083206001600160a01b03851684529091529020805460ff191660011790556104093390565b6001600160a01b0316816001600160a01b0316837f2f8788117e7eff1d82e926ec794901d17c78024a50270940304540a733656f0d60405160405180910390a45050565b61045782826102d6565b156102bc576000828152602081815260408083206001600160a01b0385168085529252808320805460ff1916905551339285917ff6391f5c32d9c69d2a47ea670b442974b53935d1edc7fd64eb21e047a839171b9190a45050565b606060006104c18360026107e9565b6104cc9060026107d1565b6001600160401b038111156104e3576104e361087b565b6040519080825280601f01601f19166020018201604052801561050d576020820181803683370190505b509050600360fc1b8160008151811061052857610528610865565b60200101906001600160f81b031916908160001a905350600f60fb1b8160018151811061055757610557610865565b60200101906001600160f81b031916908160001a905350600061057b8460026107e9565b6105869060016107d1565b90505b60018111156105fe576f181899199a1a9b1b9c1cb0b131b232b360811b85600f16601081106105ba576105ba610865565b1a60f81b8282815181106105d0576105d0610865565b60200101906001600160f81b031916908160001a90535060049490941c936105f781610838565b9050610589565b50831561064d5760405162461bcd60e51b815260206004820181905260248201527f537472696e67733a20686578206c656e67746820696e73756666696369656e7460448201526064016101e7565b9392505050565b80356001600160a01b038116811461066b57600080fd5b919050565b60006020828403121561068257600080fd5b61064d82610654565b60006020828403121561069d57600080fd5b5035919050565b600080604083850312156106b757600080fd5b823591506106c760208401610654565b90509250929050565b6000602082840312156106e257600080fd5b81356001600160e01b03198116811461064d57600080fd5b76020b1b1b2b9b9a1b7b73a3937b61d1030b1b1b7bab73a1604d1b81526000835161072c816017850160208801610808565b7001034b99036b4b9b9b4b733903937b6329607d1b601791840191820152835161075d816028840160208801610808565b01602801949350505050565b6020815260008251806020840152610788816040850160208701610808565b601f01601f19169190910160400192915050565b6020808252818101527f4f776e61626c653a2063616c6c6572206973206e6f74207468652061646d696e604082015260600190565b600082198211156107e4576107e461084f565b500190565b60008160001904831182151516156108035761080361084f565b500290565b60005b8381101561082357818101518382015260200161080b565b83811115610832576000848401525b50505050565b6000816108475761084761084f565b506000190190565b634e487b7160e01b600052601160045260246000fd5b634e487b7160e01b600052603260045260246000fd5b634e487b7160e01b600052604160045260246000fdfee2f4eaae4a9751e85a3e4a7b9587827a877f29914755229b07a7b2da98285f70a2646970667358221220845991eaaa4b1970ac5f81c643e51d42c82d3dc2b424d4c3ea071b5e055cdd5364736f6c63430008070033",
  "immutableReferences": {},
  "source": "pragma solidity ^0.8.4;\r\npragma experimental ABIEncoderV2;\r\n// SPDX-License-Identifier: UNLICENSED\r\n\r\nimport \"@openzeppelin/contracts/access/AccessControl.sol\";\r\n\r\ncontract SignerRole is AccessControl {\r\n    \r\n    bytes32 public constant SIGNER_ROLE = keccak256(\"SIGNER_ROLE\");\r\n\r\n    modifier onlyAdmin() {\r\n        require(isAdmin(_msgSender()), \"Ownable: caller is not the admin\");\r\n        _;\r\n    }\r\n\r\n    modifier onlySigner() {\r\n        require(isSigner(_msgSender()), \"Ownable: caller is not the signer\");\r\n        _;\r\n    }\r\n\r\n    constructor() {\r\n        _setupRole(DEFAULT_ADMIN_ROLE, _msgSender());\r\n    }\r\n\r\n    function addAdmin(address _accont) internal onlyAdmin {\r\n        grantRole(DEFAULT_ADMIN_ROLE , _accont);\r\n    }\r\n\r\n    function removeAdmin(address _accont) internal onlyAdmin {\r\n        revokeRole(DEFAULT_ADMIN_ROLE , _accont);\r\n    }\r\n\r\n    function addSigner(address _account) public onlyAdmin {\r\n        grantRole(SIGNER_ROLE, _account);\r\n    }\r\n\r\n    function removeSigner(address _account) public onlyAdmin {\r\n        revokeRole(SIGNER_ROLE, _account);\r\n    }\r\n\r\n    function isSigner(address _account) public virtual view returns(bool) {\r\n        return hasRole(SIGNER_ROLE, _account);\r\n    }\r\n\r\n    function isAdmin(address _account) internal virtual view returns(bool) {\r\n        return hasRole(DEFAULT_ADMIN_ROLE , _account);\r\n    }\r\n}",
  "sourcePath": "E:\\BlockChain_Workspace\\MV\\ikonic-contracts\\contracts\\roles\\SignerRole.sol",
  "compiler": {
    "name": "solc",
    "version": "0.8.7+commit.e28d00a7.Emscripten.clang"
  },
  "schemaVersion": "3.4.2",
  "updatedAt": "2021-09-08T12:26:57.533Z",
  "devdoc": {
    "kind": "dev",
    "methods": {
      "getRoleAdmin(bytes32)": {
        "details": "Returns the admin role that controls `role`. See {grantRole} and {revokeRole}. To change a role's admin, use {_setRoleAdmin}."
      },
      "grantRole(bytes32,address)": {
        "details": "Grants `role` to `account`. If `account` had not been already granted `role`, emits a {RoleGranted} event. Requirements: - the caller must have ``role``'s admin role."
      },
      "hasRole(bytes32,address)": {
        "details": "Returns `true` if `account` has been granted `role`."
      },
      "renounceRole(bytes32,address)": {
        "details": "Revokes `role` from the calling account. Roles are often managed via {grantRole} and {revokeRole}: this function's purpose is to provide a mechanism for accounts to lose their privileges if they are compromised (such as when a trusted device is misplaced). If the calling account had been granted `role`, emits a {RoleRevoked} event. Requirements: - the caller must be `account`."
      },
      "revokeRole(bytes32,address)": {
        "details": "Revokes `role` from `account`. If `account` had been granted `role`, emits a {RoleRevoked} event. Requirements: - the caller must have ``role``'s admin role."
      },
      "supportsInterface(bytes4)": {
        "details": "See {IERC165-supportsInterface}."
      }
    },
    "version": 1
  },
  "userdoc": {
    "kind": "user",
    "methods": {},
    "version": 1
  }
}